:10000000758920758DFD855098D28EC2A3D2A675B4
:1000100090FF783075180F757F06C2A7116A51C618
:1000200074011185E49360091190719B719BA38009
:10003000F330A3FD9003C2E4936007119BA3719B6F
:1000400080F59003E774011185E4936007119071C6
:100050009BA380F500000000757F05C29831AE11AA
:10006000A3209C0411D4D29C80F174381185719B1B
:10007000740E1185719B7401719B74061185719BBF
:100080007480118522F580C2A0C2A1719BC2A222F8
:10009000F580D2A0C2A1719BC2A222F5993099FD30
:1000A000C29922E599B43E2A740D119B7423119BC9
:1000B0003098FDE599F9C2983098FDE599FAC29813
:1000C0003098FDE599FBC2983098FDE599FCC298FF
:1000D000C29C0022B96C1FBA6F0BBB6708BC0D0530
:1000E000319C518622D29C9003F8E4936005119BC9
:1000F000A380F7C29C22B974ECBA3048BB310575B5
:100100007F018049BB3205757F058041BB33057592
:100110007F0C8039BB3405757F148031BB35057584
:100120007F1A8029BB3605757F218021BB37057575
:040130007F2880198B
:10013400BB3805757F2F8011BB39A6757F368009C2
:10014400BA319EBB309B757F3DBC0D95319CC29CE2
:1001540074011185719B74841185719BE9119071EF
:100164009B743A1190719BEA1190719BEB119074FE
:10017400201190719B74531190719B74651190714F
:100184009B74631190719B719B719B719B719B71AB
:100194009B719B719B719B22D29C900407E493609A
:1001A40007119BA3719B80F50022209837C2A500FC
:1001B40000D2A520A6FD0000E590F57D7931E7F693
:1001C4000809D518F975180F7830E57DF53F2098A2
:1001D4001331EC20980E510CD2A7719B719B719B2B
:1001E400C2A771A4D2A40022D2D4C2D375F00A84C7
:1001F400AAF075F00A84A9F0F8E84430FBE9443029
:10020400FCEA4430FDC2D422D2D4C2D37401118595
:10021400719B74821185719B74541190719B744508
:100224001190719B744D1190719B74501190719B3E
:1002340074451190719B74521190719B744111908B
:10024400719B74541190719B74551190719B7452ED
:100254001190719B74451190719B74C51185719BAC
:10026400EB1190719BEC1190719BED1190719B744B
:10027400DF1190719B74431190719B740C1185C2B2
:10028400D4227930757E10E731ECD2D4C2D3740D08
:10029400119B719B7454119B719B743A119B742034
:1002A400119B719BEB119BEC119B719BED119B744A
:1002B40043119B719BC2D4C2D309D57ECAC2D4C296
:1002C4009C22900419E49360111190719B719B71AD
:1002D4009B719B719B719BA380EB74C01185719B77
:1002E400900423E49360111190719B719B719B7135
:1002F4009B719B719BA380EB71A474C01185719B4E
:10030400900431E49360111190719B719B719B7106
:100314009B719B719BA380EB71A474C01185719B2D
:10032400900439E49360111190719B719B719B71DE
:100334009B719B719BA380EB71A490044A7401117F
:1003440085E49360111190719B719B719B719B71FA
:100354009B719BA380EB71A490045E74011185E4EE
:090364009360111190719B719BD3
:10036D00719B719B719B719BA380EB74C0118590E8
:10037D000469E49360111190719B719B719B719B4A
:10038D00719B719BA380EB740C118571A4227E323D
:10039D007FFFDFFEDEFA22AD7F7EFF7FFFDFFEDE19
:1003AD00FADDF6223E3E3E3E3E2052454144592066
:1003BD003E3E3E3E0044455620495320434F4E4E4F
:1003CD00454354454420544F2054484520535953D8
:1003DD0054454D28434F4D34290057524954494EE9
:1003ED0047204445564943452E2E0057524F4E4700
:1003FD0020434F4D4D414E442100434F4D4D414EF5
:10040D00442041434345505445442E0020417574CA
:10041D00686F723A200020416469747961204E61E1
:10042D006E647900202040474954200061732044B8
:10043D00656D6F2050726F6A6563742E0020416484
:10044D00646974696F6E616C20496E666F3A202025
:10045D000020547970653A204446200020554152C1
:0C046D0054203C2D2D3E20555342200011
:00000001FF
